{
  "_format": "hh-sol-artifact-1",
  "contractName": "GrievanceSystem",
  "sourceName": "contracts/EM.sol",
  "abi": [
    {
      "inputs": [],
      "stateMutability": "nonpayable",
      "type": "constructor"
    },
    {
      "anonymous": false,
      "inputs": [
        {
          "indexed": false,
          "internalType": "address",
          "name": "adminHead",
          "type": "address"
        },
        {
          "indexed": false,
          "internalType": "uint256",
          "name": "amount",
          "type": "uint256"
        }
      ],
      "name": "FundRequestCreated",
      "type": "event"
    },
    {
      "anonymous": false,
      "inputs": [
        {
          "indexed": false,
          "internalType": "uint256",
          "name": "requestId",
          "type": "uint256"
        },
        {
          "indexed": false,
          "internalType": "string",
          "name": "status",
          "type": "string"
        }
      ],
      "name": "FundRequestStatusChanged",
      "type": "event"
    },
    {
      "anonymous": false,
      "inputs": [
        {
          "indexed": false,
          "internalType": "address",
          "name": "adminHead",
          "type": "address"
        },
        {
          "indexed": false,
          "internalType": "string",
          "name": "pname",
          "type": "string"
        },
        {
          "indexed": false,
          "internalType": "uint256",
          "name": "customFund",
          "type": "uint256"
        }
      ],
      "name": "ProjectCreated",
      "type": "event"
    },
    {
      "anonymous": false,
      "inputs": [
        {
          "indexed": false,
          "internalType": "uint256",
          "name": "projectId",
          "type": "uint256"
        },
        {
          "indexed": false,
          "internalType": "string",
          "name": "status",
          "type": "string"
        }
      ],
      "name": "ProjectStatusChanged",
      "type": "event"
    },
    {
      "anonymous": false,
      "inputs": [
        {
          "indexed": false,
          "internalType": "address",
          "name": "from",
          "type": "address"
        },
        {
          "indexed": false,
          "internalType": "address",
          "name": "to",
          "type": "address"
        },
        {
          "indexed": false,
          "internalType": "uint256",
          "name": "amount",
          "type": "uint256"
        }
      ],
      "name": "TokensTransferred",
      "type": "event"
    },
    {
      "inputs": [],
      "name": "adminGovt",
      "outputs": [
        {
          "internalType": "address",
          "name": "",
          "type": "address"
        }
      ],
      "stateMutability": "view",
      "type": "function"
    },
    {
      "inputs": [],
      "name": "adminHead",
      "outputs": [
        {
          "internalType": "address",
          "name": "",
          "type": "address"
        }
      ],
      "stateMutability": "view",
      "type": "function"
    },
    {
      "inputs": [
        {
          "internalType": "address",
          "name": "_adminHead",
          "type": "address"
        }
      ],
      "name": "assignAdminHead",
      "outputs": [],
      "stateMutability": "nonpayable",
      "type": "function"
    },
    {
      "inputs": [
        {
          "internalType": "string",
          "name": "_pname",
          "type": "string"
        },
        {
          "internalType": "string",
          "name": "_details",
          "type": "string"
        },
        {
          "internalType": "uint256",
          "name": "_customFund",
          "type": "uint256"
        }
      ],
      "name": "createProject",
      "outputs": [],
      "stateMutability": "nonpayable",
      "type": "function"
    },
    {
      "inputs": [
        {
          "internalType": "uint256",
          "name": "projectId",
          "type": "uint256"
        },
        {
          "internalType": "string",
          "name": "_status",
          "type": "string"
        }
      ],
      "name": "editProjectStatus",
      "outputs": [],
      "stateMutability": "nonpayable",
      "type": "function"
    },
    {
      "inputs": [
        {
          "internalType": "string",
          "name": "_name",
          "type": "string"
        },
        {
          "internalType": "string",
          "name": "_details",
          "type": "string"
        }
      ],
      "name": "fileGrievance",
      "outputs": [],
      "stateMutability": "nonpayable",
      "type": "function"
    },
    {
      "inputs": [
        {
          "internalType": "uint256",
          "name": "",
          "type": "uint256"
        }
      ],
      "name": "fundRequests",
      "outputs": [
        {
          "internalType": "uint256",
          "name": "amount",
          "type": "uint256"
        },
        {
          "internalType": "string",
          "name": "status",
          "type": "string"
        },
        {
          "internalType": "address",
          "name": "adminHead",
          "type": "address"
        }
      ],
      "stateMutability": "view",
      "type": "function"
    },
    {
      "inputs": [
        {
          "internalType": "uint256",
          "name": "",
          "type": "uint256"
        }
      ],
      "name": "grievances",
      "outputs": [
        {
          "internalType": "string",
          "name": "name",
          "type": "string"
        },
        {
          "internalType": "string",
          "name": "details",
          "type": "string"
        },
        {
          "internalType": "string",
          "name": "status",
          "type": "string"
        },
        {
          "internalType": "address",
          "name": "user",
          "type": "address"
        }
      ],
      "stateMutability": "view",
      "type": "function"
    },
    {
      "inputs": [
        {
          "internalType": "uint256",
          "name": "",
          "type": "uint256"
        }
      ],
      "name": "projects",
      "outputs": [
        {
          "internalType": "string",
          "name": "pname",
          "type": "string"
        },
        {
          "internalType": "string",
          "name": "details",
          "type": "string"
        },
        {
          "internalType": "uint256",
          "name": "customFund",
          "type": "uint256"
        },
        {
          "internalType": "string",
          "name": "status",
          "type": "string"
        },
        {
          "internalType": "address",
          "name": "adminHead",
          "type": "address"
        }
      ],
      "stateMutability": "view",
      "type": "function"
    },
    {
      "inputs": [
        {
          "internalType": "address",
          "name": "_userAddress",
          "type": "address"
        },
        {
          "internalType": "string",
          "name": "_name",
          "type": "string"
        },
        {
          "internalType": "string",
          "name": "_email",
          "type": "string"
        },
        {
          "internalType": "string",
          "name": "_dob",
          "type": "string"
        },
        {
          "internalType": "string",
          "name": "_mobile",
          "type": "string"
        }
      ],
      "name": "registerUser",
      "outputs": [],
      "stateMutability": "nonpayable",
      "type": "function"
    },
    {
      "inputs": [
        {
          "internalType": "uint256",
          "name": "",
          "type": "uint256"
        }
      ],
      "name": "registeredUsers",
      "outputs": [
        {
          "internalType": "address",
          "name": "",
          "type": "address"
        }
      ],
      "stateMutability": "view",
      "type": "function"
    },
    {
      "inputs": [
        {
          "internalType": "uint256",
          "name": "_amount",
          "type": "uint256"
        }
      ],
      "name": "requestFunds",
      "outputs": [],
      "stateMutability": "nonpayable",
      "type": "function"
    },
    {
      "inputs": [
        {
          "internalType": "uint256",
          "name": "_requestId",
          "type": "uint256"
        }
      ],
      "name": "sendTokensToAdminHead",
      "outputs": [],
      "stateMutability": "nonpayable",
      "type": "function"
    },
    {
      "inputs": [
        {
          "internalType": "address",
          "name": "",
          "type": "address"
        }
      ],
      "name": "tokenBalance",
      "outputs": [
        {
          "internalType": "uint256",
          "name": "",
          "type": "uint256"
        }
      ],
      "stateMutability": "view",
      "type": "function"
    },
    {
      "inputs": [],
      "name": "totalSupply",
      "outputs": [
        {
          "internalType": "uint256",
          "name": "",
          "type": "uint256"
        }
      ],
      "stateMutability": "view",
      "type": "function"
    },
    {
      "inputs": [
        {
          "internalType": "address",
          "name": "",
          "type": "address"
        }
      ],
      "name": "users",
      "outputs": [
        {
          "internalType": "string",
          "name": "name",
          "type": "string"
        },
        {
          "internalType": "string",
          "name": "email",
          "type": "string"
        },
        {
          "internalType": "string",
          "name": "dob",
          "type": "string"
        },
        {
          "internalType": "string",
          "name": "mobile",
          "type": "string"
        }
      ],
      "stateMutability": "view",
      "type": "function"
    },
    {
      "inputs": [],
      "name": "viewAdminHeadDetails",
      "outputs": [
        {
          "internalType": "address",
          "name": "",
          "type": "address"
        }
      ],
      "stateMutability": "view",
      "type": "function"
    },
    {
      "inputs": [],
      "name": "viewAllProjects",
      "outputs": [
        {
          "components": [
            {
              "internalType": "string",
              "name": "pname",
              "type": "string"
            },
            {
              "internalType": "string",
              "name": "details",
              "type": "string"
            },
            {
              "internalType": "uint256",
              "name": "customFund",
              "type": "uint256"
            },
            {
              "internalType": "string",
              "name": "status",
              "type": "string"
            },
            {
              "internalType": "address",
              "name": "adminHead",
              "type": "address"
            }
          ],
          "internalType": "struct GrievanceSystem.Project[]",
          "name": "",
          "type": "tuple[]"
        }
      ],
      "stateMutability": "view",
      "type": "function"
    },
    {
      "inputs": [],
      "name": "viewAllUsers",
      "outputs": [
        {
          "components": [
            {
              "internalType": "string",
              "name": "name",
              "type": "string"
            },
            {
              "internalType": "string",
              "name": "email",
              "type": "string"
            },
            {
              "internalType": "string",
              "name": "dob",
              "type": "string"
            },
            {
              "internalType": "string",
              "name": "mobile",
              "type": "string"
            }
          ],
          "internalType": "struct GrievanceSystem.User[]",
          "name": "",
          "type": "tuple[]"
        }
      ],
      "stateMutability": "view",
      "type": "function"
    },
    {
      "inputs": [],
      "name": "viewAllUsersAdminGovt",
      "outputs": [
        {
          "components": [
            {
              "internalType": "string",
              "name": "name",
              "type": "string"
            },
            {
              "internalType": "string",
              "name": "email",
              "type": "string"
            },
            {
              "internalType": "string",
              "name": "dob",
              "type": "string"
            },
            {
              "internalType": "string",
              "name": "mobile",
              "type": "string"
            }
          ],
          "internalType": "struct GrievanceSystem.User[]",
          "name": "",
          "type": "tuple[]"
        }
      ],
      "stateMutability": "view",
      "type": "function"
    },
    {
      "inputs": [
        {
          "internalType": "uint256",
          "name": "grievanceIndex",
          "type": "uint256"
        },
        {
          "internalType": "string",
          "name": "_status",
          "type": "string"
        }
      ],
      "name": "viewAndEditGrievances",
      "outputs": [],
      "stateMutability": "nonpayable",
      "type": "function"
    },
    {
      "inputs": [],
      "name": "viewBalanceAdminGovt",
      "outputs": [
        {
          "internalType": "uint256",
          "name": "",
          "type": "uint256"
        }
      ],
      "stateMutability": "view",
      "type": "function"
    },
    {
      "inputs": [],
      "name": "viewBalanceAdminHead",
      "outputs": [
        {
          "internalType": "uint256",
          "name": "",
          "type": "uint256"
        }
      ],
      "stateMutability": "view",
      "type": "function"
    },
    {
      "inputs": [],
      "name": "viewFundRequests",
      "outputs": [
        {
          "components": [
            {
              "internalType": "uint256",
              "name": "amount",
              "type": "uint256"
            },
            {
              "internalType": "string",
              "name": "status",
              "type": "string"
            },
            {
              "internalType": "address",
              "name": "adminHead",
              "type": "address"
            }
          ],
          "internalType": "struct GrievanceSystem.FundRequest[]",
          "name": "",
          "type": "tuple[]"
        }
      ],
      "stateMutability": "view",
      "type": "function"
    },
    {
      "inputs": [],
      "name": "viewGrievances",
      "outputs": [
        {
          "components": [
            {
              "internalType": "string",
              "name": "name",
              "type": "string"
            },
            {
              "internalType": "string",
              "name": "details",
              "type": "string"
            },
            {
              "internalType": "string",
              "name": "status",
              "type": "string"
            },
            {
              "internalType": "address",
              "name": "user",
              "type": "address"
            }
          ],
          "internalType": "struct GrievanceSystem.Grievance[]",
          "name": "",
          "type": "tuple[]"
        }
      ],
      "stateMutability": "view",
      "type": "function"
    }
  ],
  "bytecode": "0x6080604052612710600355348015601557600080fd5b50336000806101000a81548173ffffffffffffffffffffffffffffffffffffffff021916908373ffffffffffffffffffffffffffffffffffffffff160217905550600354600260008060009054906101000a900473ffffffffffffffffffffffffffffffffffffffff1673ffffffffffffffffffffffffffffffffffffffff1673ffffffffffffffffffffffffffffffffffffffff16815260200190815260200160002081905550614183806100cc6000396000f3fe608060405234801561001057600080fd5b50600436106101735760003560e01c806380ee37fa116100de578063cc2bec2611610097578063eedc966a11610071578063eedc966a14610446578063ef04165014610476578063f59ec22014610494578063fb277564146104b057610173565b8063cc2bec26146103ec578063ec046fc71461040a578063ee11c1f21461042857610173565b806380ee37fa14610317578063999eab2b14610349578063a87430ba14610365578063adf5e9a814610398578063b5578a74146103b4578063bf3bd25d146103d057610173565b8063356f1d7511610130578063356f1d751461023e5780634412819b14610271578063480879a71461028f57806349bd51a4146102ab5780635c920838146102c95780637259e0f8146102e757610173565b8063107046bd1461017857806317f5a5e9146101ac57806318160ddd146101c857806323c55448146101e65780632543a1421461020257806329e4b44f14610220575b600080fd5b610192600480360381019061018d9190612aa0565b6104ce565b6040516101a3959493929190612bad565b60405180910390f35b6101c660048036038101906101c19190612aa0565b6106cc565b005b6101d0610afb565b6040516101dd9190612c15565b60405180910390f35b61020060048036038101906101fb9190612d65565b610b01565b005b61020a610f12565b6040516102179190612f74565b60405180910390f35b610228610faf565b60405161023591906130fa565b60405180910390f35b61025860048036038101906102539190612aa0565b6112b2565b604051610268949392919061311c565b60405180910390f35b6102796114aa565b6040516102869190612c15565b60405180910390f35b6102a960048036038101906102a49190613176565b611581565b005b6102b36116e1565b6040516102c09190612c15565b60405180910390f35b6102d16117b7565b6040516102de91906131d2565b60405180910390f35b61030160048036038101906102fc9190612aa0565b6117dd565b60405161030e91906131d2565b60405180910390f35b610331600480360381019061032c9190612aa0565b61181c565b604051610340939291906131ed565b60405180910390f35b610363600480360381019061035e9190613257565b6118fe565b005b61037f600480360381019061037a9190613342565b611a23565b60405161038f949392919061336f565b60405180910390f35b6103b260048036038101906103ad9190613176565b611c73565b005b6103ce60048036038101906103c991906133d0565b611e0b565b005b6103ea60048036038101906103e59190612aa0565b611f31565b005b6103f461213a565b604051610401919061355a565b60405180910390f35b610412612319565b60405161041f9190612f74565b60405180910390f35b61043061268b565b60405161043d91906131d2565b60405180910390f35b610460600480360381019061045b9190613342565b6126b5565b60405161046d9190612c15565b60405180910390f35b61047e6126cd565b60405161048b91906136af565b60405180910390f35b6104ae60048036038101906104a99190613342565b612938565b005b6104b8612a0a565b6040516104c591906131d2565b60405180910390f35b600681815481106104de57600080fd5b906000526020600020906005020160009150905080600001805461050190613700565b80601f016020809104026020016040519081016040528092919081815260200182805461052d90613700565b801561057a5780601f1061054f5761010080835404028352916020019161057a565b820191906000526020600020905b81548152906001019060200180831161055d57829003601f168201915b50505050509080600101805461058f90613700565b80601f01602080910402602001604051908101604052809291908181526020018280546105bb90613700565b80156106085780601f106105dd57610100808354040283529160200191610608565b820191906000526020600020905b8154815290600101906020018083116105eb57829003601f168201915b50505050509080600201549080600301805461062390613700565b80601f016020809104026020016040519081016040528092919081815260200182805461064f90613700565b801561069c5780601f106106715761010080835404028352916020019161069c565b820191906000526020600020905b81548152906001019060200180831161067f57829003601f168201915b5050505050908060040160009054906101000a900473ffffffffffffffffffffffffffffffffffffffff16905085565b60008054906101000a900473ffffffffffffffffffffffffffffffffffffffff1673ffffffffffffffffffffffffffffffffffffffff163373ffffffffffffffffffffffffffffffffffffffff161461075a576040517f08c379a0000000000000000000000000000000000000000000000000000000008152600401610751906137a3565b60405180910390fd5b60078054905081106107a1576040517f08c379a00000000000000000000000000000000000000000000000000000000081526004016107989061380f565b60405180910390fd5b6000600782815481106107b7576107b661382f565b5b906000526020600020906003020190506040516020016107d6906138b5565b60405160208183030381529060405280519060200120816001016040516020016108009190613962565b6040516020818303038152906040528051906020012014610856576040517f08c379a000000000000000000000000000000000000000000000000000000000815260040161084d906139c5565b60405180910390fd5b8060000154600260008060009054906101000a900473ffffffffffffffffffffffffffffffffffffffff1673ffffffffffffffffffffffffffffffffffffffff1673ffffffffffffffffffffffffffffffffffffffff1681526020019081526020016000205410156108fd576040517f08c379a00000000000000000000000000000000000000000000000000000000081526004016108f490613a57565b60405180910390fd5b8060000154600260008060009054906101000a900473ffffffffffffffffffffffffffffffffffffffff1673ffffffffffffffffffffffffffffffffffffffff1673ffffffffffffffffffffffffffffffffffffffff16815260200190815260200160002060008282546109719190613aa6565b925050819055508060000154600260008360020160009054906101000a900473ffffffffffffffffffffffffffffffffffffffff1673ffffffffffffffffffffffffffffffffffffffff1673ffffffffffffffffffffffffffffffffffffffff16815260200190815260200160002060008282546109ef9190613ada565b925050819055506040518060400160405280600481526020017f5041494400000000000000000000000000000000000000000000000000000000815250816001019081610a3c9190613ca5565b507f3d7d4ea2087ad4b4949998c076d02fef9d438e579f4886f2f21b9f854738af4082604051610a6c9190613dc3565b60405180910390a17f1b89874203ff7f0bba87c969ada3f32fda22ed38a6706d35199d21280c7811b160008054906101000a900473ffffffffffffffffffffffffffffffffffffffff168260020160009054906101000a900473ffffffffffffffffffffffffffffffffffffffff168360000154604051610aef93929190613df1565b60405180910390a15050565b60035481565b600160009054906101000a900473ffffffffffffffffffffffffffffffffffffffff1673ffffffffffffffffffffffffffffffffffffffff163373ffffffffffffffffffffffffffffffffffffffff1614610b91576040517f08c379a0000000000000000000000000000000000000000000000000000000008152600401610b8890613e9a565b60405180910390fd5b80600260008060009054906101000a900473ffffffffffffffffffffffffffffffffffffffff1673ffffffffffffffffffffffffffffffffffffffff1673ffffffffffffffffffffffffffffffffffffffff168152602001908152602001600020541015610c34576040517f08c379a0000000000000000000000000000000000000000000000000000000008152600401610c2b90613f2c565b60405180910390fd5b80600260008060009054906101000a900473ffffffffffffffffffffffffffffffffffffffff1673ffffffffffffffffffffffffffffffffffffffff1673ffffffffffffffffffffffffffffffffffffffff1681526020019081526020016000206000828254610ca49190613aa6565b925050819055508060026000600160009054906101000a900473ffffffffffffffffffffffffffffffffffffffff1673ffffffffffffffffffffffffffffffffffffffff1673ffffffffffffffffffffffffffffffffffffffff1681526020019081526020016000206000828254610d1c9190613aa6565b9250508190555060066040518060a001604052808581526020018481526020018381526020016040518060400160405280600781526020017f4f4e474f494e470000000000000000000000000000000000000000000000000081525081526020013373ffffffffffffffffffffffffffffffffffffffff1681525090806001815401808255809150506001900390600052602060002090600502016000909190919091506000820151816000019081610dd59190613ca5565b506020820151816001019081610deb9190613ca5565b50604082015181600201556060820151816003019081610e0b9190613ca5565b5060808201518160040160006101000a81548173ffffffffffffffffffffffffffffffffffffffff021916908373ffffffffffffffffffffffffffffffffffffffff16021790555050507f14d412ab7f17dd4a99523bcd692333c46877e622687304dabefc4ba03dd0399e338483604051610e8893929190613f4c565b60405180910390a17f1b89874203ff7f0bba87c969ada3f32fda22ed38a6706d35199d21280c7811b160008054906101000a900473ffffffffffffffffffffffffffffffffffffffff16600160009054906101000a900473ffffffffffffffffffffffffffffffffffffffff1683604051610f0593929190613df1565b60405180910390a1505050565b606060008054906101000a900473ffffffffffffffffffffffffffffffffffffffff1673ffffffffffffffffffffffffffffffffffffffff163373ffffffffffffffffffffffffffffffffffffffff1614610fa2576040517f08c379a0000000000000000000000000000000000000000000000000000000008152600401610f99906137a3565b60405180910390fd5b610faa612319565b905090565b606060008054906101000a900473ffffffffffffffffffffffffffffffffffffffff1673ffffffffffffffffffffffffffffffffffffffff163373ffffffffffffffffffffffffffffffffffffffff161461103f576040517f08c379a0000000000000000000000000000000000000000000000000000000008152600401611036906137a3565b60405180910390fd5b6006805480602002602001604051908101604052809291908181526020016000905b828210156112a957838290600052602060002090600502016040518060a001604052908160008201805461109490613700565b80601f01602080910402602001604051908101604052809291908181526020018280546110c090613700565b801561110d5780601f106110e25761010080835404028352916020019161110d565b820191906000526020600020905b8154815290600101906020018083116110f057829003601f168201915b5050505050815260200160018201805461112690613700565b80601f016020809104026020016040519081016040528092919081815260200182805461115290613700565b801561119f5780601f106111745761010080835404028352916020019161119f565b820191906000526020600020905b81548152906001019060200180831161118257829003601f168201915b50505050508152602001600282015481526020016003820180546111c290613700565b80601f01602080910402602001604051908101604052809291908181526020018280546111ee90613700565b801561123b5780601f106112105761010080835404028352916020019161123b565b820191906000526020600020905b81548152906001019060200180831161121e57829003601f168201915b505050505081526020016004820160009054906101000a900473ffffffffffffffffffffffffffffffffffffffff1673ffffffffffffffffffffffffffffffffffffffff1673ffffffffffffffffffffffffffffffffffffffff168152505081526020019060010190611061565b50505050905090565b600581815481106112c257600080fd5b90600052602060002090600402016000915090508060000180546112e590613700565b80601f016020809104026020016040519081016040528092919081815260200182805461131190613700565b801561135e5780601f106113335761010080835404028352916020019161135e565b820191906000526020600020905b81548152906001019060200180831161134157829003601f168201915b50505050509080600101805461137390613700565b80601f016020809104026020016040519081016040528092919081815260200182805461139f90613700565b80156113ec5780601f106113c1576101008083540402835291602001916113ec565b820191906000526020600020905b8154815290600101906020018083116113cf57829003601f168201915b50505050509080600201805461140190613700565b80601f016020809104026020016040519081016040528092919081815260200182805461142d90613700565b801561147a5780601f1061144f5761010080835404028352916020019161147a565b820191906000526020600020905b81548152906001019060200180831161145d57829003601f168201915b5050505050908060030160009054906101000a900473ffffffffffffffffffffffffffffffffffffffff16905084565b6000600160009054906101000a900473ffffffffffffffffffffffffffffffffffffffff1673ffffffffffffffffffffffffffffffffffffffff163373ffffffffffffffffffffffffffffffffffffffff161461153c576040517f08c379a000000000000000000000000000000000000000000000000000000000815260040161153390613e9a565b60405180910390fd5b600260003373ffffffffffffffffffffffffffffffffffffffff1673ffffffffffffffffffffffffffffffffffffffff16815260200190815260200160002054905090565b600160009054906101000a900473ffffffffffffffffffffffffffffffffffffffff1673ffffffffffffffffffffffffffffffffffffffff163373ffffffffffffffffffffffffffffffffffffffff1614611611576040517f08c379a000000000000000000000000000000000000000000000000000000000815260040161160890613e9a565b60405180910390fd5b6000600583815481106116275761162661382f565b5b90600052602060002090600402019050600073ffffffffffffffffffffffffffffffffffffffff168160030160009054906101000a900473ffffffffffffffffffffffffffffffffffffffff1673ffffffffffffffffffffffffffffffffffffffff16036116ca576040517f08c379a00000000000000000000000000000000000000000000000000000000081526004016116c190613fd6565b60405180910390fd5b818160020190816116db9190613ca5565b50505050565b60008060009054906101000a900473ffffffffffffffffffffffffffffffffffffffff1673ffffffffffffffffffffffffffffffffffffffff163373ffffffffffffffffffffffffffffffffffffffff1614611772576040517f08c379a0000000000000000000000000000000000000000000000000000000008152600401611769906137a3565b60405180910390fd5b600260003373ffffffffffffffffffffffffffffffffffffffff1673ffffffffffffffffffffffffffffffffffffffff16815260200190815260200160002054905090565b600160009054906101000a900473ffffffffffffffffffffffffffffffffffffffff1681565b600881815481106117ed57600080fd5b906000526020600020016000915054906101000a900473ffffffffffffffffffffffffffffffffffffffff1681565b6007818154811061182c57600080fd5b906000526020600020906003020160009150905080600001549080600101805461185590613700565b80601f016020809104026020016040519081016040528092919081815260200182805461188190613700565b80156118ce5780601f106118a3576101008083540402835291602001916118ce565b820191906000526020600020905b8154815290600101906020018083116118b157829003601f168201915b5050505050908060020160009054906101000a900473ffffffffffffffffffffffffffffffffffffffff16905083565b604051806080016040528085815260200184815260200183815260200182815250600460008773ffffffffffffffffffffffffffffffffffffffff1673ffffffffffffffffffffffffffffffffffffffff16815260200190815260200160002060008201518160000190816119739190613ca5565b5060208201518160010190816119899190613ca5565b50604082015181600201908161199f9190613ca5565b5060608201518160030190816119b59190613ca5565b509050506008859080600181540180825580915050600190039060005260206000200160009091909190916101000a81548173ffffffffffffffffffffffffffffffffffffffff021916908373ffffffffffffffffffffffffffffffffffffffff1602179055505050505050565b6004602052806000526040600020600091509050806000018054611a4690613700565b80601f0160208091040260200160405190810160405280929190818152602001828054611a7290613700565b8015611abf5780601f10611a9457610100808354040283529160200191611abf565b820191906000526020600020905b815481529060010190602001808311611aa257829003601f168201915b505050505090806001018054611ad490613700565b80601f0160208091040260200160405190810160405280929190818152602001828054611b0090613700565b8015611b4d5780601f10611b2257610100808354040283529160200191611b4d565b820191906000526020600020905b815481529060010190602001808311611b3057829003601f168201915b505050505090806002018054611b6290613700565b80601f0160208091040260200160405190810160405280929190818152602001828054611b8e90613700565b8015611bdb5780601f10611bb057610100808354040283529160200191611bdb565b820191906000526020600020905b815481529060010190602001808311611bbe57829003601f168201915b505050505090806003018054611bf090613700565b80601f0160208091040260200160405190810160405280929190818152602001828054611c1c90613700565b8015611c695780601f10611c3e57610100808354040283529160200191611c69565b820191906000526020600020905b815481529060010190602001808311611c4c57829003601f168201915b5050505050905084565b600160009054906101000a900473ffffffffffffffffffffffffffffffffffffffff1673ffffffffffffffffffffffffffffffffffffffff163373ffffffffffffffffffffffffffffffffffffffff1614611d03576040517f08c379a0000000000000000000000000000000000000000000000000000000008152600401611cfa90613e9a565b60405180910390fd5b600060068381548110611d1957611d1861382f565b5b906000526020600020906005020190503373ffffffffffffffffffffffffffffffffffffffff168160040160009054906101000a900473ffffffffffffffffffffffffffffffffffffffff1673ffffffffffffffffffffffffffffffffffffffff1614611dbb576040517f08c379a0000000000000000000000000000000000000000000000000000000008152600401611db290614068565b60405180910390fd5b81816003019081611dcc9190613ca5565b507f2f2a85d37a596b89f75c8402b3e5d32785d744a76d938d42465dfe3fbb9494b18383604051611dfe929190614088565b60405180910390a1505050565b600560405180608001604052808481526020018381526020016040518060400160405280600781526020017f50454e44494e470000000000000000000000000000000000000000000000000081525081526020013373ffffffffffffffffffffffffffffffffffffffff1681525090806001815401808255809150506001900390600052602060002090600402016000909190919091506000820151816000019081611eb79190613ca5565b506020820151816001019081611ecd9190613ca5565b506040820151816002019081611ee39190613ca5565b5060608201518160030160006101000a81548173ffffffffffffffffffffffffffffffffffffffff021916908373ffffffffffffffffffffffffffffffffffffffff16021790555050505050565b600160009054906101000a900473ffffffffffffffffffffffffffffffffffffffff1673ffffffffffffffffffffffffffffffffffffffff163373ffffffffffffffffffffffffffffffffffffffff1614611fc1576040517f08c379a0000000000000000000000000000000000000000000000000000000008152600401611fb890613e9a565b60405180910390fd5b60008111612004576040517f08c379a0000000000000000000000000000000000000000000000000000000008152600401611ffb90614104565b60405180910390fd5b600760405180606001604052808381526020016040518060400160405280600781526020017f4e4f54504149440000000000000000000000000000000000000000000000000081525081526020013373ffffffffffffffffffffffffffffffffffffffff1681525090806001815401808255809150506001900390600052602060002090600302016000909190919091506000820151816000015560208201518160010190816120b49190613ca5565b5060408201518160020160006101000a81548173ffffffffffffffffffffffffffffffffffffffff021916908373ffffffffffffffffffffffffffffffffffffffff16021790555050507f5f93c49722b44e08aea4a393f692797a08bc428ee26dde28de8544faa6096329338260405161212f929190614124565b60405180910390a150565b606060008054906101000a900473ffffffffffffffffffffffffffffffffffffffff1673ffffffffffffffffffffffffffffffffffffffff163373ffffffffffffffffffffffffffffffffffffffff16146121ca576040517f08c379a00000000000000000000000000000000000000000000000000000000081526004016121c1906137a3565b60405180910390fd5b6007805480602002602001604051908101604052809291908181526020016000905b8282101561231057838290600052602060002090600302016040518060600160405290816000820154815260200160018201805461222990613700565b80601f016020809104026020016040519081016040528092919081815260200182805461225590613700565b80156122a25780601f10612277576101008083540402835291602001916122a2565b820191906000526020600020905b81548152906001019060200180831161228557829003601f168201915b505050505081526020016002820160009054906101000a900473ffffffffffffffffffffffffffffffffffffffff1673ffffffffffffffffffffffffffffffffffffffff1673ffffffffffffffffffffffffffffffffffffffff1681525050815260200190600101906121ec565b50505050905090565b6060600060088054905067ffffffffffffffff81111561233c5761233b612c3a565b5b60405190808252806020026020018201604052801561237557816020015b612362612a2e565b81526020019060019003908161235a5790505b50905060005b6008805490508110156126835760046000600883815481106123a05761239f61382f565b5b9060005260206000200160009054906101000a900473ffffffffffffffffffffffffffffffffffffffff1673ffffffffffffffffffffffffffffffffffffffff1673ffffffffffffffffffffffffffffffffffffffff16815260200190815260200160002060405180608001604052908160008201805461242090613700565b80601f016020809104026020016040519081016040528092919081815260200182805461244c90613700565b80156124995780601f1061246e57610100808354040283529160200191612499565b820191906000526020600020905b81548152906001019060200180831161247c57829003601f168201915b505050505081526020016001820180546124b290613700565b80601f01602080910402602001604051908101604052809291908181526020018280546124de90613700565b801561252b5780601f106125005761010080835404028352916020019161252b565b820191906000526020600020905b81548152906001019060200180831161250e57829003601f168201915b5050505050815260200160028201805461254490613700565b80601f016020809104026020016040519081016040528092919081815260200182805461257090613700565b80156125bd5780601f10612592576101008083540402835291602001916125bd565b820191906000526020600020905b8154815290600101906020018083116125a057829003601f168201915b505050505081526020016003820180546125d690613700565b80601f016020809104026020016040519081016040528092919081815260200182805461260290613700565b801561264f5780601f106126245761010080835404028352916020019161264f565b820191906000526020600020905b81548152906001019060200180831161263257829003601f168201915b50505050508152505082828151811061266b5761266a61382f565b5b6020026020010181905250808060010191505061237b565b508091505090565b6000600160009054906101000a900473ffffffffffffffffffffffffffffffffffffffff16905090565b60026020528060005260406000206000915090505481565b60606005805480602002602001604051908101604052809291908181526020016000905b8282101561292f578382906000526020600020906004020160405180608001604052908160008201805461272490613700565b80601f016020809104026020016040519081016040528092919081815260200182805461275090613700565b801561279d5780601f106127725761010080835404028352916020019161279d565b820191906000526020600020905b81548152906001019060200180831161278057829003601f168201915b505050505081526020016001820180546127b690613700565b80601f01602080910402602001604051908101604052809291908181526020018280546127e290613700565b801561282f5780601f106128045761010080835404028352916020019161282f565b820191906000526020600020905b81548152906001019060200180831161281257829003601f168201915b5050505050815260200160028201805461284890613700565b80601f016020809104026020016040519081016040528092919081815260200182805461287490613700565b80156128c15780601f10612896576101008083540402835291602001916128c1565b820191906000526020600020905b8154815290600101906020018083116128a457829003601f168201915b505050505081526020016003820160009054906101000a900473ffffffffffffffffffffffffffffffffffffffff1673ffffffffffffffffffffffffffffffffffffffff1673ffffffffffffffffffffffffffffffffffffffff1681525050815260200190600101906126f1565b50505050905090565b60008054906101000a900473ffffffffffffffffffffffffffffffffffffffff1673ffffffffffffffffffffffffffffffffffffffff163373ffffffffffffffffffffffffffffffffffffffff16146129c6576040517f08c379a00000000000000000000000000000000000000000000000000000000081526004016129bd906137a3565b60405180910390fd5b80600160006101000a81548173ffffffffffffffffffffffffffffffffffffffff021916908373ffffffffffffffffffffffffffffffffffffffff16021790555050565b60008054906101000a900473ffffffffffffffffffffffffffffffffffffffff1681565b6040518060800160405280606081526020016060815260200160608152602001606081525090565b6000604051905090565b600080fd5b600080fd5b6000819050919050565b612a7d81612a6a565b8114612a8857600080fd5b50565b600081359050612a9a81612a74565b92915050565b600060208284031215612ab657612ab5612a60565b5b6000612ac484828501612a8b565b91505092915050565b600081519050919050565b600082825260208201905092915050565b60005b83811015612b07578082015181840152602081019050612aec565b60008484015250505050565b6000601f19601f8301169050919050565b6000612b2f82612acd565b612b398185612ad8565b9350612b49818560208601612ae9565b612b5281612b13565b840191505092915050565b612b6681612a6a565b82525050565b600073ffffffffffffffffffffffffffffffffffffffff82169050919050565b6000612b9782612b6c565b9050919050565b612ba781612b8c565b82525050565b600060a0820190508181036000830152612bc78188612b24565b90508181036020830152612bdb8187612b24565b9050612bea6040830186612b5d565b8181036060830152612bfc8185612b24565b9050612c0b6080830184612b9e565b9695505050505050565b6000602082019050612c2a6000830184612b5d565b92915050565b600080fd5b600080fd5b7f4e487b7100000000000000000000000000000000000000000000000000000000600052604160045260246000fd5b612c7282612b13565b810181811067ffffffffffffffff82111715612c9157612c90612c3a565b5b80604052505050565b6000612ca4612a56565b9050612cb08282612c69565b919050565b600067ffffffffffffffff821115612cd057612ccf612c3a565b5b612cd982612b13565b9050602081019050919050565b82818337600083830152505050565b6000612d08612d0384612cb5565b612c9a565b905082815260208101848484011115612d2457612d23612c35565b5b612d2f848285612ce6565b509392505050565b600082601f830112612d4c57612d4b612c30565b5b8135612d5c848260208601612cf5565b91505092915050565b600080600060608486031215612d7e57612d7d612a60565b5b600084013567ffffffffffffffff811115612d9c57612d9b612a65565b5b612da886828701612d37565b935050602084013567ffffffffffffffff811115612dc957612dc8612a65565b5b612dd586828701612d37565b9250506040612de686828701612a8b565b9150509250925092565b600081519050919050565b600082825260208201905092915050565b6000819050602082019050919050565b600082825260208201905092915050565b6000612e3882612acd565b612e428185612e1c565b9350612e52818560208601612ae9565b612e5b81612b13565b840191505092915050565b60006080830160008301518482036000860152612e838282612e2d565b91505060208301518482036020860152612e9d8282612e2d565b91505060408301518482036040860152612eb78282612e2d565b91505060608301518482036060860152612ed18282612e2d565b9150508091505092915050565b6000612eea8383612e66565b905092915050565b6000602082019050919050565b6000612f0a82612df0565b612f148185612dfb565b935083602082028501612f2685612e0c565b8060005b85811015612f625784840389528151612f438582612ede565b9450612f4e83612ef2565b925060208a01995050600181019050612f2a565b50829750879550505050505092915050565b60006020820190508181036000830152612f8e8184612eff565b905092915050565b600081519050919050565b600082825260208201905092915050565b6000819050602082019050919050565b612fcb81612a6a565b82525050565b612fda81612b8c565b82525050565b600060a0830160008301518482036000860152612ffd8282612e2d565b915050602083015184820360208601526130178282612e2d565b915050604083015161302c6040860182612fc2565b50606083015184820360608601526130448282612e2d565b91505060808301516130596080860182612fd1565b508091505092915050565b60006130708383612fe0565b905092915050565b6000602082019050919050565b600061309082612f96565b61309a8185612fa1565b9350836020820285016130ac85612fb2565b8060005b858110156130e857848403895281516130c98582613064565b94506130d483613078565b925060208a019950506001810190506130b0565b50829750879550505050505092915050565b600060208201905081810360008301526131148184613085565b905092915050565b600060808201905081810360008301526131368187612b24565b9050818103602083015261314a8186612b24565b9050818103604083015261315e8185612b24565b905061316d6060830184612b9e565b95945050505050565b6000806040838503121561318d5761318c612a60565b5b600061319b85828601612a8b565b925050602083013567ffffffffffffffff8111156131bc576131bb612a65565b5b6131c885828601612d37565b9150509250929050565b60006020820190506131e76000830184612b9e565b92915050565b60006060820190506132026000830186612b5d565b81810360208301526132148185612b24565b90506132236040830184612b9e565b949350505050565b61323481612b8c565b811461323f57600080fd5b50565b6000813590506132518161322b565b92915050565b600080600080600060a0868803121561327357613272612a60565b5b600061328188828901613242565b955050602086013567ffffffffffffffff8111156132a2576132a1612a65565b5b6132ae88828901612d37565b945050604086013567ffffffffffffffff8111156132cf576132ce612a65565b5b6132db88828901612d37565b935050606086013567ffffffffffffffff8111156132fc576132fb612a65565b5b61330888828901612d37565b925050608086013567ffffffffffffffff81111561332957613328612a65565b5b61333588828901612d37565b9150509295509295909350565b60006020828403121561335857613357612a60565b5b600061336684828501613242565b91505092915050565b600060808201905081810360008301526133898187612b24565b9050818103602083015261339d8186612b24565b905081810360408301526133b18185612b24565b905081810360608301526133c58184612b24565b905095945050505050565b600080604083850312156133e7576133e6612a60565b5b600083013567ffffffffffffffff81111561340557613404612a65565b5b61341185828601612d37565b925050602083013567ffffffffffffffff81111561343257613431612a65565b5b61343e85828601612d37565b9150509250929050565b600081519050919050565b600082825260208201905092915050565b6000819050602082019050919050565b600060608301600083015161348c6000860182612fc2565b50602083015184820360208601526134a48282612e2d565b91505060408301516134b96040860182612fd1565b508091505092915050565b60006134d08383613474565b905092915050565b6000602082019050919050565b60006134f082613448565b6134fa8185613453565b93508360208202850161350c85613464565b8060005b85811015613548578484038952815161352985826134c4565b9450613534836134d8565b925060208a01995050600181019050613510565b50829750879550505050505092915050565b6000602082019050818103600083015261357481846134e5565b905092915050565b600081519050919050565b600082825260208201905092915050565b6000819050602082019050919050565b600060808301600083015184820360008601526135c58282612e2d565b915050602083015184820360208601526135df8282612e2d565b915050604083015184820360408601526135f98282612e2d565b915050606083015161360e6060860182612fd1565b508091505092915050565b600061362583836135a8565b905092915050565b6000602082019050919050565b60006136458261357c565b61364f8185613587565b93508360208202850161366185613598565b8060005b8581101561369d578484038952815161367e8582613619565b94506136898361362d565b925060208a01995050600181019050613665565b50829750879550505050505092915050565b600060208201905081810360008301526136c9818461363a565b905092915050565b7f4e487b7100000000000000000000000000000000000000000000000000000000600052602260045260246000fd5b6000600282049050600182168061371857607f821691505b60208210810361372b5761372a6136d1565b5b50919050565b7f4f6e6c792041646d696e476f76742063616e20706572666f726d20746869732060008201527f616374696f6e2e00000000000000000000000000000000000000000000000000602082015250565b600061378d602783612ad8565b915061379882613731565b604082019050919050565b600060208201905081810360008301526137bc81613780565b9050919050565b7f496e76616c696420726571756573742049442e00000000000000000000000000600082015250565b60006137f9601383612ad8565b9150613804826137c3565b602082019050919050565b60006020820190508181036000830152613828816137ec565b9050919050565b7f4e487b7100000000000000000000000000000000000000000000000000000000600052603260045260246000fd5b600081905092915050565b7f4e4f545041494400000000000000000000000000000000000000000000000000600082015250565b600061389f60078361385e565b91506138aa82613869565b600782019050919050565b60006138c082613892565b9150819050919050565b60008190508160005260206000209050919050565b600081546138ec81613700565b6138f6818661385e565b94506001821660008114613911576001811461392657613959565b60ff1983168652811515820286019350613959565b61392f856138ca565b60005b8381101561395157815481890152600182019150602081019050613932565b838801955050505b50505092915050565b600061396e82846138df565b915081905092915050565b7f5265717565737420616c726561647920706169642e0000000000000000000000600082015250565b60006139af601583612ad8565b91506139ba82613979565b602082019050919050565b600060208201905081810360008301526139de816139a2565b9050919050565b7f496e73756666696369656e742062616c616e636520746f2073656e6420746f6b60008201527f656e732e00000000000000000000000000000000000000000000000000000000602082015250565b6000613a41602483612ad8565b9150613a4c826139e5565b604082019050919050565b60006020820190508181036000830152613a7081613a34565b9050919050565b7f4e487b7100000000000000000000000000000000000000000000000000000000600052601160045260246000fd5b6000613ab182612a6a565b9150613abc83612a6a565b9250828203905081811115613ad457613ad3613a77565b5b92915050565b6000613ae582612a6a565b9150613af083612a6a565b9250828201905080821115613b0857613b07613a77565b5b92915050565b60006020601f8301049050919050565b600082821b905092915050565b600060088302613b5b7fffffffffffffffffffffffffffffffffffffffffffffffffffffffffffffffff82613b1e565b613b658683613b1e565b95508019841693508086168417925050509392505050565b6000819050919050565b6000613ba2613b9d613b9884612a6a565b613b7d565b612a6a565b9050919050565b6000819050919050565b613bbc83613b87565b613bd0613bc882613ba9565b848454613b2b565b825550505050565b600090565b613be5613bd8565b613bf0818484613bb3565b505050565b5b81811015613c1457613c09600082613bdd565b600181019050613bf6565b5050565b601f821115613c5957613c2a816138ca565b613c3384613b0e565b81016020851015613c42578190505b613c56613c4e85613b0e565b830182613bf5565b50505b505050565b600082821c905092915050565b6000613c7c60001984600802613c5e565b1980831691505092915050565b6000613c958383613c6b565b9150826002028217905092915050565b613cae82612acd565b67ffffffffffffffff811115613cc757613cc6612c3a565b5b613cd18254613700565b613cdc828285613c18565b600060209050601f831160018114613d0f5760008415613cfd578287015190505b613d078582613c89565b865550613d6f565b601f198416613d1d866138ca565b60005b82811015613d4557848901518255600182019150602085019450602081019050613d20565b86831015613d625784890151613d5e601f891682613c6b565b8355505b6001600288020188555050505b505050505050565b7f5041494400000000000000000000000000000000000000000000000000000000600082015250565b6000613dad600483612ad8565b9150613db882613d77565b602082019050919050565b6000604082019050613dd86000830184612b5d565b8181036020830152613de981613da0565b905092915050565b6000606082019050613e066000830186612b9e565b613e136020830185612b9e565b613e206040830184612b5d565b949350505050565b7f4f6e6c792041646d696e486561642063616e20706572666f726d20746869732060008201527f616374696f6e2e00000000000000000000000000000000000000000000000000602082015250565b6000613e84602783612ad8565b9150613e8f82613e28565b604082019050919050565b60006020820190508181036000830152613eb381613e77565b9050919050565b7f496e73756666696369656e742062616c616e636520696e2041646d696e476f7660008201527f7420746f20616c6c6f6361746520637573746f6d2066756e64732e0000000000602082015250565b6000613f16603b83612ad8565b9150613f2182613eba565b604082019050919050565b60006020820190508181036000830152613f4581613f09565b9050919050565b6000606082019050613f616000830186612b9e565b8181036020830152613f738185612b24565b9050613f826040830184612b5d565b949350505050565b7f496e76616c6964206772696576616e636520696e6465782e0000000000000000600082015250565b6000613fc0601883612ad8565b9150613fcb82613f8a565b602082019050919050565b60006020820190508181036000830152613fef81613fb3565b9050919050565b7f4f6e6c79207468652063726561746f722063616e20656469742074686973207060008201527f726f6a6563742e00000000000000000000000000000000000000000000000000602082015250565b6000614052602783612ad8565b915061405d82613ff6565b604082019050919050565b6000602082019050818103600083015261408181614045565b9050919050565b600060408201905061409d6000830185612b5d565b81810360208301526140af8184612b24565b90509392505050565b7f416d6f756e74206d7573742062652067726561746572207468616e20302e0000600082015250565b60006140ee601e83612ad8565b91506140f9826140b8565b602082019050919050565b6000602082019050818103600083015261411d816140e1565b9050919050565b60006040820190506141396000830185612b9e565b6141466020830184612b5d565b939250505056fea264697066735822122082abae036c520406a8f58b1615da7f18a608bd3b2cc712ab0ee86c7c216489d864736f6c634300081b0033",
  "linkReferences": {},
  "deployedLinkReferences": {}
}