{
  "_format": "hh-sol-artifact-1",
  "contractName": "GrievanceSystem",
  "sourceName": "contracts/EM.sol",
  "abi": [
    {
      "inputs": [],
      "stateMutability": "nonpayable",
      "type": "constructor"
    },
    {
      "anonymous": false,
      "inputs": [
        {
          "indexed": false,
          "internalType": "address",
          "name": "adminHead",
          "type": "address"
        },
        {
          "indexed": false,
          "internalType": "uint256",
          "name": "amount",
          "type": "uint256"
        }
      ],
      "name": "FundRequestCreated",
      "type": "event"
    },
    {
      "anonymous": false,
      "inputs": [
        {
          "indexed": false,
          "internalType": "uint256",
          "name": "requestId",
          "type": "uint256"
        },
        {
          "indexed": false,
          "internalType": "string",
          "name": "status",
          "type": "string"
        }
      ],
      "name": "FundRequestStatusChanged",
      "type": "event"
    },
    {
      "anonymous": false,
      "inputs": [
        {
          "indexed": false,
          "internalType": "address",
          "name": "adminHead",
          "type": "address"
        },
        {
          "indexed": false,
          "internalType": "string",
          "name": "pname",
          "type": "string"
        },
        {
          "indexed": false,
          "internalType": "uint256",
          "name": "customFund",
          "type": "uint256"
        }
      ],
      "name": "ProjectCreated",
      "type": "event"
    },
    {
      "anonymous": false,
      "inputs": [
        {
          "indexed": false,
          "internalType": "uint256",
          "name": "projectId",
          "type": "uint256"
        },
        {
          "indexed": false,
          "internalType": "string",
          "name": "status",
          "type": "string"
        }
      ],
      "name": "ProjectStatusChanged",
      "type": "event"
    },
    {
      "anonymous": false,
      "inputs": [
        {
          "indexed": false,
          "internalType": "address",
          "name": "from",
          "type": "address"
        },
        {
          "indexed": false,
          "internalType": "address",
          "name": "to",
          "type": "address"
        },
        {
          "indexed": false,
          "internalType": "uint256",
          "name": "amount",
          "type": "uint256"
        }
      ],
      "name": "TokensTransferred",
      "type": "event"
    },
    {
      "inputs": [],
      "name": "adminGovt",
      "outputs": [
        {
          "internalType": "address",
          "name": "",
          "type": "address"
        }
      ],
      "stateMutability": "view",
      "type": "function"
    },
    {
      "inputs": [],
      "name": "adminHead",
      "outputs": [
        {
          "internalType": "address",
          "name": "",
          "type": "address"
        }
      ],
      "stateMutability": "view",
      "type": "function"
    },
    {
      "inputs": [
        {
          "internalType": "address",
          "name": "_adminHead",
          "type": "address"
        }
      ],
      "name": "assignAdminHead",
      "outputs": [],
      "stateMutability": "nonpayable",
      "type": "function"
    },
    {
      "inputs": [
        {
          "internalType": "string",
          "name": "_pname",
          "type": "string"
        },
        {
          "internalType": "string",
          "name": "_details",
          "type": "string"
        },
        {
          "internalType": "uint256",
          "name": "_customFund",
          "type": "uint256"
        }
      ],
      "name": "createProject",
      "outputs": [],
      "stateMutability": "nonpayable",
      "type": "function"
    },
    {
      "inputs": [
        {
          "internalType": "uint256",
          "name": "projectId",
          "type": "uint256"
        },
        {
          "internalType": "string",
          "name": "_status",
          "type": "string"
        }
      ],
      "name": "editProjectStatus",
      "outputs": [],
      "stateMutability": "nonpayable",
      "type": "function"
    },
    {
      "inputs": [
        {
          "internalType": "string",
          "name": "_name",
          "type": "string"
        },
        {
          "internalType": "string",
          "name": "_details",
          "type": "string"
        }
      ],
      "name": "fileGrievance",
      "outputs": [],
      "stateMutability": "nonpayable",
      "type": "function"
    },
    {
      "inputs": [
        {
          "internalType": "uint256",
          "name": "",
          "type": "uint256"
        }
      ],
      "name": "fundRequests",
      "outputs": [
        {
          "internalType": "uint256",
          "name": "amount",
          "type": "uint256"
        },
        {
          "internalType": "string",
          "name": "status",
          "type": "string"
        },
        {
          "internalType": "address",
          "name": "adminHead",
          "type": "address"
        }
      ],
      "stateMutability": "view",
      "type": "function"
    },
    {
      "inputs": [
        {
          "internalType": "uint256",
          "name": "",
          "type": "uint256"
        }
      ],
      "name": "grievances",
      "outputs": [
        {
          "internalType": "string",
          "name": "name",
          "type": "string"
        },
        {
          "internalType": "string",
          "name": "details",
          "type": "string"
        },
        {
          "internalType": "string",
          "name": "status",
          "type": "string"
        },
        {
          "internalType": "address",
          "name": "user",
          "type": "address"
        }
      ],
      "stateMutability": "view",
      "type": "function"
    },
    {
      "inputs": [
        {
          "internalType": "uint256",
          "name": "",
          "type": "uint256"
        }
      ],
      "name": "projects",
      "outputs": [
        {
          "internalType": "string",
          "name": "pname",
          "type": "string"
        },
        {
          "internalType": "string",
          "name": "details",
          "type": "string"
        },
        {
          "internalType": "uint256",
          "name": "customFund",
          "type": "uint256"
        },
        {
          "internalType": "string",
          "name": "status",
          "type": "string"
        },
        {
          "internalType": "address",
          "name": "adminHead",
          "type": "address"
        }
      ],
      "stateMutability": "view",
      "type": "function"
    },
    {
      "inputs": [
        {
          "internalType": "address",
          "name": "_userAddress",
          "type": "address"
        },
        {
          "internalType": "string",
          "name": "_name",
          "type": "string"
        },
        {
          "internalType": "string",
          "name": "_email",
          "type": "string"
        },
        {
          "internalType": "string",
          "name": "_dob",
          "type": "string"
        },
        {
          "internalType": "string",
          "name": "_mobile",
          "type": "string"
        }
      ],
      "name": "registerUser",
      "outputs": [],
      "stateMutability": "nonpayable",
      "type": "function"
    },
    {
      "inputs": [
        {
          "internalType": "uint256",
          "name": "",
          "type": "uint256"
        }
      ],
      "name": "registeredUsers",
      "outputs": [
        {
          "internalType": "address",
          "name": "",
          "type": "address"
        }
      ],
      "stateMutability": "view",
      "type": "function"
    },
    {
      "inputs": [
        {
          "internalType": "uint256",
          "name": "_amount",
          "type": "uint256"
        }
      ],
      "name": "requestFunds",
      "outputs": [],
      "stateMutability": "nonpayable",
      "type": "function"
    },
    {
      "inputs": [
        {
          "internalType": "uint256",
          "name": "_requestId",
          "type": "uint256"
        }
      ],
      "name": "sendTokensToAdminHead",
      "outputs": [],
      "stateMutability": "nonpayable",
      "type": "function"
    },
    {
      "inputs": [
        {
          "internalType": "address",
          "name": "",
          "type": "address"
        }
      ],
      "name": "tokenBalance",
      "outputs": [
        {
          "internalType": "uint256",
          "name": "",
          "type": "uint256"
        }
      ],
      "stateMutability": "view",
      "type": "function"
    },
    {
      "inputs": [],
      "name": "totalSupply",
      "outputs": [
        {
          "internalType": "uint256",
          "name": "",
          "type": "uint256"
        }
      ],
      "stateMutability": "view",
      "type": "function"
    },
    {
      "inputs": [
        {
          "internalType": "address",
          "name": "",
          "type": "address"
        }
      ],
      "name": "users",
      "outputs": [
        {
          "internalType": "string",
          "name": "name",
          "type": "string"
        },
        {
          "internalType": "string",
          "name": "email",
          "type": "string"
        },
        {
          "internalType": "string",
          "name": "dob",
          "type": "string"
        },
        {
          "internalType": "string",
          "name": "mobile",
          "type": "string"
        }
      ],
      "stateMutability": "view",
      "type": "function"
    },
    {
      "inputs": [],
      "name": "viewAdminHeadDetails",
      "outputs": [
        {
          "internalType": "address",
          "name": "",
          "type": "address"
        }
      ],
      "stateMutability": "view",
      "type": "function"
    },
    {
      "inputs": [],
      "name": "viewAllProjects",
      "outputs": [
        {
          "components": [
            {
              "internalType": "string",
              "name": "pname",
              "type": "string"
            },
            {
              "internalType": "string",
              "name": "details",
              "type": "string"
            },
            {
              "internalType": "uint256",
              "name": "customFund",
              "type": "uint256"
            },
            {
              "internalType": "string",
              "name": "status",
              "type": "string"
            },
            {
              "internalType": "address",
              "name": "adminHead",
              "type": "address"
            }
          ],
          "internalType": "struct GrievanceSystem.Project[]",
          "name": "",
          "type": "tuple[]"
        }
      ],
      "stateMutability": "view",
      "type": "function"
    },
    {
      "inputs": [],
      "name": "viewAllUsers",
      "outputs": [
        {
          "components": [
            {
              "internalType": "string",
              "name": "name",
              "type": "string"
            },
            {
              "internalType": "string",
              "name": "email",
              "type": "string"
            },
            {
              "internalType": "string",
              "name": "dob",
              "type": "string"
            },
            {
              "internalType": "string",
              "name": "mobile",
              "type": "string"
            }
          ],
          "internalType": "struct GrievanceSystem.User[]",
          "name": "",
          "type": "tuple[]"
        }
      ],
      "stateMutability": "view",
      "type": "function"
    },
    {
      "inputs": [
        {
          "internalType": "uint256",
          "name": "grievanceIndex",
          "type": "uint256"
        },
        {
          "internalType": "string",
          "name": "_status",
          "type": "string"
        }
      ],
      "name": "viewAndEditGrievances",
      "outputs": [],
      "stateMutability": "nonpayable",
      "type": "function"
    },
    {
      "inputs": [],
      "name": "viewBalanceAdminGovt",
      "outputs": [
        {
          "internalType": "uint256",
          "name": "",
          "type": "uint256"
        }
      ],
      "stateMutability": "view",
      "type": "function"
    },
    {
      "inputs": [],
      "name": "viewBalanceAdminHead",
      "outputs": [
        {
          "internalType": "uint256",
          "name": "",
          "type": "uint256"
        }
      ],
      "stateMutability": "view",
      "type": "function"
    },
    {
      "inputs": [],
      "name": "viewFundRequests",
      "outputs": [
        {
          "components": [
            {
              "internalType": "uint256",
              "name": "amount",
              "type": "uint256"
            },
            {
              "internalType": "string",
              "name": "status",
              "type": "string"
            },
            {
              "internalType": "address",
              "name": "adminHead",
              "type": "address"
            }
          ],
          "internalType": "struct GrievanceSystem.FundRequest[]",
          "name": "",
          "type": "tuple[]"
        }
      ],
      "stateMutability": "view",
      "type": "function"
    },
    {
      "inputs": [],
      "name": "viewGrievances",
      "outputs": [
        {
          "components": [
            {
              "internalType": "string",
              "name": "name",
              "type": "string"
            },
            {
              "internalType": "string",
              "name": "details",
              "type": "string"
            },
            {
              "internalType": "string",
              "name": "status",
              "type": "string"
            },
            {
              "internalType": "address",
              "name": "user",
              "type": "address"
            }
          ],
          "internalType": "struct GrievanceSystem.Grievance[]",
          "name": "",
          "type": "tuple[]"
        }
      ],
      "stateMutability": "view",
      "type": "function"
    }
  ],
  "bytecode": "0x6080604052612710600355348015601557600080fd5b50336000806101000a81548173ffffffffffffffffffffffffffffffffffffffff021916908373ffffffffffffffffffffffffffffffffffffffff160217905550600354600260008060009054906101000a900473ffffffffffffffffffffffffffffffffffffffff1673ffffffffffffffffffffffffffffffffffffffff1673ffffffffffffffffffffffffffffffffffffffff16815260200190815260200160002081905550613f91806100cc6000396000f3fe608060405234801561001057600080fd5b50600436106101585760003560e01c8063999eab2b116100c3578063ec046fc71161007c578063ec046fc7146103d1578063ee11c1f2146103ef578063eedc966a1461040d578063ef0416501461043d578063f59ec2201461045b578063fb2775641461047757610158565b8063999eab2b14610310578063a87430ba1461032c578063adf5e9a81461035f578063b5578a741461037b578063bf3bd25d14610397578063cc2bec26146103b357610158565b80634412819b116101155780634412819b14610238578063480879a71461025657806349bd51a4146102725780635c920838146102905780637259e0f8146102ae57806380ee37fa146102de57610158565b8063107046bd1461015d57806317f5a5e91461019157806318160ddd146101ad57806323c55448146101cb57806329e4b44f146101e7578063356f1d7514610205575b600080fd5b610177600480360381019061017291906128ae565b610495565b6040516101889594939291906129bb565b60405180910390f35b6101ab60048036038101906101a691906128ae565b610693565b005b6101b5610ac2565b6040516101c29190612a23565b60405180910390f35b6101e560048036038101906101e09190612b73565b610ac8565b005b6101ef610ed9565b6040516101fc9190612dac565b60405180910390f35b61021f600480360381019061021a91906128ae565b61114e565b60405161022f9493929190612dce565b60405180910390f35b610240611346565b60405161024d9190612a23565b60405180910390f35b610270600480360381019061026b9190612e28565b61141d565b005b61027a61157d565b6040516102879190612a23565b60405180910390f35b610298611653565b6040516102a59190612e84565b60405180910390f35b6102c860048036038101906102c391906128ae565b611679565b6040516102d59190612e84565b60405180910390f35b6102f860048036038101906102f391906128ae565b6116b8565b60405161030793929190612e9f565b60405180910390f35b61032a60048036038101906103259190612f09565b61179a565b005b61034660048036038101906103419190612ff4565b6118bf565b6040516103569493929190613021565b60405180910390f35b61037960048036038101906103749190612e28565b611b0f565b005b61039560048036038101906103909190613082565b611ca7565b005b6103b160048036038101906103ac91906128ae565b611dcd565b005b6103bb611fd6565b6040516103c8919061320c565b60405180910390f35b6103d9612127565b6040516103e69190613368565b60405180910390f35b6103f7612499565b6040516104049190612e84565b60405180910390f35b61042760048036038101906104229190612ff4565b6124c3565b6040516104349190612a23565b60405180910390f35b6104456124db565b60405161045291906134bd565b60405180910390f35b61047560048036038101906104709190612ff4565b612746565b005b61047f612818565b60405161048c9190612e84565b60405180910390f35b600681815481106104a557600080fd5b90600052602060002090600502016000915090508060000180546104c89061350e565b80601f01602080910402602001604051908101604052809291908181526020018280546104f49061350e565b80156105415780601f1061051657610100808354040283529160200191610541565b820191906000526020600020905b81548152906001019060200180831161052457829003601f168201915b5050505050908060010180546105569061350e565b80601f01602080910402602001604051908101604052809291908181526020018280546105829061350e565b80156105cf5780601f106105a4576101008083540402835291602001916105cf565b820191906000526020600020905b8154815290600101906020018083116105b257829003601f168201915b5050505050908060020154908060030180546105ea9061350e565b80601f01602080910402602001604051908101604052809291908181526020018280546106169061350e565b80156106635780601f1061063857610100808354040283529160200191610663565b820191906000526020600020905b81548152906001019060200180831161064657829003601f168201915b5050505050908060040160009054906101000a900473ffffffffffffffffffffffffffffffffffffffff16905085565b60008054906101000a900473ffffffffffffffffffffffffffffffffffffffff1673ffffffffffffffffffffffffffffffffffffffff163373ffffffffffffffffffffffffffffffffffffffff1614610721576040517f08c379a0000000000000000000000000000000000000000000000000000000008152600401610718906135b1565b60405180910390fd5b6007805490508110610768576040517f08c379a000000000000000000000000000000000000000000000000000000000815260040161075f9061361d565b60405180910390fd5b60006007828154811061077e5761077d61363d565b5b9060005260206000209060030201905060405160200161079d906136c3565b60405160208183030381529060405280519060200120816001016040516020016107c79190613770565b604051602081830303815290604052805190602001201461081d576040517f08c379a0000000000000000000000000000000000000000000000000000000008152600401610814906137d3565b60405180910390fd5b8060000154600260008060009054906101000a900473ffffffffffffffffffffffffffffffffffffffff1673ffffffffffffffffffffffffffffffffffffffff1673ffffffffffffffffffffffffffffffffffffffff1681526020019081526020016000205410156108c4576040517f08c379a00000000000000000000000000000000000000000000000000000000081526004016108bb90613865565b60405180910390fd5b8060000154600260008060009054906101000a900473ffffffffffffffffffffffffffffffffffffffff1673ffffffffffffffffffffffffffffffffffffffff1673ffffffffffffffffffffffffffffffffffffffff168152602001908152602001600020600082825461093891906138b4565b925050819055508060000154600260008360020160009054906101000a900473ffffffffffffffffffffffffffffffffffffffff1673ffffffffffffffffffffffffffffffffffffffff1673ffffffffffffffffffffffffffffffffffffffff16815260200190815260200160002060008282546109b691906138e8565b925050819055506040518060400160405280600481526020017f5041494400000000000000000000000000000000000000000000000000000000815250816001019081610a039190613ab3565b507f3d7d4ea2087ad4b4949998c076d02fef9d438e579f4886f2f21b9f854738af4082604051610a339190613bd1565b60405180910390a17f1b89874203ff7f0bba87c969ada3f32fda22ed38a6706d35199d21280c7811b160008054906101000a900473ffffffffffffffffffffffffffffffffffffffff168260020160009054906101000a900473ffffffffffffffffffffffffffffffffffffffff168360000154604051610ab693929190613bff565b60405180910390a15050565b60035481565b600160009054906101000a900473ffffffffffffffffffffffffffffffffffffffff1673ffffffffffffffffffffffffffffffffffffffff163373ffffffffffffffffffffffffffffffffffffffff1614610b58576040517f08c379a0000000000000000000000000000000000000000000000000000000008152600401610b4f90613ca8565b60405180910390fd5b80600260008060009054906101000a900473ffffffffffffffffffffffffffffffffffffffff1673ffffffffffffffffffffffffffffffffffffffff1673ffffffffffffffffffffffffffffffffffffffff168152602001908152602001600020541015610bfb576040517f08c379a0000000000000000000000000000000000000000000000000000000008152600401610bf290613d3a565b60405180910390fd5b80600260008060009054906101000a900473ffffffffffffffffffffffffffffffffffffffff1673ffffffffffffffffffffffffffffffffffffffff1673ffffffffffffffffffffffffffffffffffffffff1681526020019081526020016000206000828254610c6b91906138b4565b925050819055508060026000600160009054906101000a900473ffffffffffffffffffffffffffffffffffffffff1673ffffffffffffffffffffffffffffffffffffffff1673ffffffffffffffffffffffffffffffffffffffff1681526020019081526020016000206000828254610ce391906138b4565b9250508190555060066040518060a001604052808581526020018481526020018381526020016040518060400160405280600781526020017f4f4e474f494e470000000000000000000000000000000000000000000000000081525081526020013373ffffffffffffffffffffffffffffffffffffffff1681525090806001815401808255809150506001900390600052602060002090600502016000909190919091506000820151816000019081610d9c9190613ab3565b506020820151816001019081610db29190613ab3565b50604082015181600201556060820151816003019081610dd29190613ab3565b5060808201518160040160006101000a81548173ffffffffffffffffffffffffffffffffffffffff021916908373ffffffffffffffffffffffffffffffffffffffff16021790555050507f14d412ab7f17dd4a99523bcd692333c46877e622687304dabefc4ba03dd0399e338483604051610e4f93929190613d5a565b60405180910390a17f1b89874203ff7f0bba87c969ada3f32fda22ed38a6706d35199d21280c7811b160008054906101000a900473ffffffffffffffffffffffffffffffffffffffff16600160009054906101000a900473ffffffffffffffffffffffffffffffffffffffff1683604051610ecc93929190613bff565b60405180910390a1505050565b60606006805480602002602001604051908101604052809291908181526020016000905b8282101561114557838290600052602060002090600502016040518060a0016040529081600082018054610f309061350e565b80601f0160208091040260200160405190810160405280929190818152602001828054610f5c9061350e565b8015610fa95780601f10610f7e57610100808354040283529160200191610fa9565b820191906000526020600020905b815481529060010190602001808311610f8c57829003601f168201915b50505050508152602001600182018054610fc29061350e565b80601f0160208091040260200160405190810160405280929190818152602001828054610fee9061350e565b801561103b5780601f106110105761010080835404028352916020019161103b565b820191906000526020600020905b81548152906001019060200180831161101e57829003601f168201915b505050505081526020016002820154815260200160038201805461105e9061350e565b80601f016020809104026020016040519081016040528092919081815260200182805461108a9061350e565b80156110d75780601f106110ac576101008083540402835291602001916110d7565b820191906000526020600020905b8154815290600101906020018083116110ba57829003601f168201915b505050505081526020016004820160009054906101000a900473ffffffffffffffffffffffffffffffffffffffff1673ffffffffffffffffffffffffffffffffffffffff1673ffffffffffffffffffffffffffffffffffffffff168152505081526020019060010190610efd565b50505050905090565b6005818154811061115e57600080fd5b90600052602060002090600402016000915090508060000180546111819061350e565b80601f01602080910402602001604051908101604052809291908181526020018280546111ad9061350e565b80156111fa5780601f106111cf576101008083540402835291602001916111fa565b820191906000526020600020905b8154815290600101906020018083116111dd57829003601f168201915b50505050509080600101805461120f9061350e565b80601f016020809104026020016040519081016040528092919081815260200182805461123b9061350e565b80156112885780601f1061125d57610100808354040283529160200191611288565b820191906000526020600020905b81548152906001019060200180831161126b57829003601f168201915b50505050509080600201805461129d9061350e565b80601f01602080910402602001604051908101604052809291908181526020018280546112c99061350e565b80156113165780601f106112eb57610100808354040283529160200191611316565b820191906000526020600020905b8154815290600101906020018083116112f957829003601f168201915b5050505050908060030160009054906101000a900473ffffffffffffffffffffffffffffffffffffffff16905084565b6000600160009054906101000a900473ffffffffffffffffffffffffffffffffffffffff1673ffffffffffffffffffffffffffffffffffffffff163373ffffffffffffffffffffffffffffffffffffffff16146113d8576040517f08c379a00000000000000000000000000000000000000000000000000000000081526004016113cf90613ca8565b60405180910390fd5b600260003373ffffffffffffffffffffffffffffffffffffffff1673ffffffffffffffffffffffffffffffffffffffff16815260200190815260200160002054905090565b600160009054906101000a900473ffffffffffffffffffffffffffffffffffffffff1673ffffffffffffffffffffffffffffffffffffffff163373ffffffffffffffffffffffffffffffffffffffff16146114ad576040517f08c379a00000000000000000000000000000000000000000000000000000000081526004016114a490613ca8565b60405180910390fd5b6000600583815481106114c3576114c261363d565b5b90600052602060002090600402019050600073ffffffffffffffffffffffffffffffffffffffff168160030160009054906101000a900473ffffffffffffffffffffffffffffffffffffffff1673ffffffffffffffffffffffffffffffffffffffff1603611566576040517f08c379a000000000000000000000000000000000000000000000000000000000815260040161155d90613de4565b60405180910390fd5b818160020190816115779190613ab3565b50505050565b60008060009054906101000a900473ffffffffffffffffffffffffffffffffffffffff1673ffffffffffffffffffffffffffffffffffffffff163373ffffffffffffffffffffffffffffffffffffffff161461160e576040517f08c379a0000000000000000000000000000000000000000000000000000000008152600401611605906135b1565b60405180910390fd5b600260003373ffffffffffffffffffffffffffffffffffffffff1673ffffffffffffffffffffffffffffffffffffffff16815260200190815260200160002054905090565b600160009054906101000a900473ffffffffffffffffffffffffffffffffffffffff1681565b6008818154811061168957600080fd5b906000526020600020016000915054906101000a900473ffffffffffffffffffffffffffffffffffffffff1681565b600781815481106116c857600080fd5b90600052602060002090600302016000915090508060000154908060010180546116f19061350e565b80601f016020809104026020016040519081016040528092919081815260200182805461171d9061350e565b801561176a5780601f1061173f5761010080835404028352916020019161176a565b820191906000526020600020905b81548152906001019060200180831161174d57829003601f168201915b5050505050908060020160009054906101000a900473ffffffffffffffffffffffffffffffffffffffff16905083565b604051806080016040528085815260200184815260200183815260200182815250600460008773ffffffffffffffffffffffffffffffffffffffff1673ffffffffffffffffffffffffffffffffffffffff168152602001908152602001600020600082015181600001908161180f9190613ab3565b5060208201518160010190816118259190613ab3565b50604082015181600201908161183b9190613ab3565b5060608201518160030190816118519190613ab3565b509050506008859080600181540180825580915050600190039060005260206000200160009091909190916101000a81548173ffffffffffffffffffffffffffffffffffffffff021916908373ffffffffffffffffffffffffffffffffffffffff1602179055505050505050565b60046020528060005260406000206000915090508060000180546118e29061350e565b80601f016020809104026020016040519081016040528092919081815260200182805461190e9061350e565b801561195b5780601f106119305761010080835404028352916020019161195b565b820191906000526020600020905b81548152906001019060200180831161193e57829003601f168201915b5050505050908060010180546119709061350e565b80601f016020809104026020016040519081016040528092919081815260200182805461199c9061350e565b80156119e95780601f106119be576101008083540402835291602001916119e9565b820191906000526020600020905b8154815290600101906020018083116119cc57829003601f168201915b5050505050908060020180546119fe9061350e565b80601f0160208091040260200160405190810160405280929190818152602001828054611a2a9061350e565b8015611a775780601f10611a4c57610100808354040283529160200191611a77565b820191906000526020600020905b815481529060010190602001808311611a5a57829003601f168201915b505050505090806003018054611a8c9061350e565b80601f0160208091040260200160405190810160405280929190818152602001828054611ab89061350e565b8015611b055780601f10611ada57610100808354040283529160200191611b05565b820191906000526020600020905b815481529060010190602001808311611ae857829003601f168201915b5050505050905084565b600160009054906101000a900473ffffffffffffffffffffffffffffffffffffffff1673ffffffffffffffffffffffffffffffffffffffff163373ffffffffffffffffffffffffffffffffffffffff1614611b9f576040517f08c379a0000000000000000000000000000000000000000000000000000000008152600401611b9690613ca8565b60405180910390fd5b600060068381548110611bb557611bb461363d565b5b906000526020600020906005020190503373ffffffffffffffffffffffffffffffffffffffff168160040160009054906101000a900473ffffffffffffffffffffffffffffffffffffffff1673ffffffffffffffffffffffffffffffffffffffff1614611c57576040517f08c379a0000000000000000000000000000000000000000000000000000000008152600401611c4e90613e76565b60405180910390fd5b81816003019081611c689190613ab3565b507f2f2a85d37a596b89f75c8402b3e5d32785d744a76d938d42465dfe3fbb9494b18383604051611c9a929190613e96565b60405180910390a1505050565b600560405180608001604052808481526020018381526020016040518060400160405280600781526020017f50454e44494e470000000000000000000000000000000000000000000000000081525081526020013373ffffffffffffffffffffffffffffffffffffffff1681525090806001815401808255809150506001900390600052602060002090600402016000909190919091506000820151816000019081611d539190613ab3565b506020820151816001019081611d699190613ab3565b506040820151816002019081611d7f9190613ab3565b5060608201518160030160006101000a81548173ffffffffffffffffffffffffffffffffffffffff021916908373ffffffffffffffffffffffffffffffffffffffff16021790555050505050565b600160009054906101000a900473ffffffffffffffffffffffffffffffffffffffff1673ffffffffffffffffffffffffffffffffffffffff163373ffffffffffffffffffffffffffffffffffffffff1614611e5d576040517f08c379a0000000000000000000000000000000000000000000000000000000008152600401611e5490613ca8565b60405180910390fd5b60008111611ea0576040517f08c379a0000000000000000000000000000000000000000000000000000000008152600401611e9790613f12565b60405180910390fd5b600760405180606001604052808381526020016040518060400160405280600781526020017f4e4f54504149440000000000000000000000000000000000000000000000000081525081526020013373ffffffffffffffffffffffffffffffffffffffff168152509080600181540180825580915050600190039060005260206000209060030201600090919091909150600082015181600001556020820151816001019081611f509190613ab3565b5060408201518160020160006101000a81548173ffffffffffffffffffffffffffffffffffffffff021916908373ffffffffffffffffffffffffffffffffffffffff16021790555050507f5f93c49722b44e08aea4a393f692797a08bc428ee26dde28de8544faa60963293382604051611fcb929190613f32565b60405180910390a150565b60606007805480602002602001604051908101604052809291908181526020016000905b8282101561211e5783829060005260206000209060030201604051806060016040529081600082015481526020016001820180546120379061350e565b80601f01602080910402602001604051908101604052809291908181526020018280546120639061350e565b80156120b05780601f10612085576101008083540402835291602001916120b0565b820191906000526020600020905b81548152906001019060200180831161209357829003601f168201915b505050505081526020016002820160009054906101000a900473ffffffffffffffffffffffffffffffffffffffff1673ffffffffffffffffffffffffffffffffffffffff1673ffffffffffffffffffffffffffffffffffffffff168152505081526020019060010190611ffa565b50505050905090565b6060600060088054905067ffffffffffffffff81111561214a57612149612a48565b5b60405190808252806020026020018201604052801561218357816020015b61217061283c565b8152602001906001900390816121685790505b50905060005b6008805490508110156124915760046000600883815481106121ae576121ad61363d565b5b9060005260206000200160009054906101000a900473ffffffffffffffffffffffffffffffffffffffff1673ffffffffffffffffffffffffffffffffffffffff1673ffffffffffffffffffffffffffffffffffffffff16815260200190815260200160002060405180608001604052908160008201805461222e9061350e565b80601f016020809104026020016040519081016040528092919081815260200182805461225a9061350e565b80156122a75780601f1061227c576101008083540402835291602001916122a7565b820191906000526020600020905b81548152906001019060200180831161228a57829003601f168201915b505050505081526020016001820180546122c09061350e565b80601f01602080910402602001604051908101604052809291908181526020018280546122ec9061350e565b80156123395780601f1061230e57610100808354040283529160200191612339565b820191906000526020600020905b81548152906001019060200180831161231c57829003601f168201915b505050505081526020016002820180546123529061350e565b80601f016020809104026020016040519081016040528092919081815260200182805461237e9061350e565b80156123cb5780601f106123a0576101008083540402835291602001916123cb565b820191906000526020600020905b8154815290600101906020018083116123ae57829003601f168201915b505050505081526020016003820180546123e49061350e565b80601f01602080910402602001604051908101604052809291908181526020018280546124109061350e565b801561245d5780601f106124325761010080835404028352916020019161245d565b820191906000526020600020905b81548152906001019060200180831161244057829003601f168201915b5050505050815250508282815181106124795761247861363d565b5b60200260200101819052508080600101915050612189565b508091505090565b6000600160009054906101000a900473ffffffffffffffffffffffffffffffffffffffff16905090565b60026020528060005260406000206000915090505481565b60606005805480602002602001604051908101604052809291908181526020016000905b8282101561273d57838290600052602060002090600402016040518060800160405290816000820180546125329061350e565b80601f016020809104026020016040519081016040528092919081815260200182805461255e9061350e565b80156125ab5780601f10612580576101008083540402835291602001916125ab565b820191906000526020600020905b81548152906001019060200180831161258e57829003601f168201915b505050505081526020016001820180546125c49061350e565b80601f01602080910402602001604051908101604052809291908181526020018280546125f09061350e565b801561263d5780601f106126125761010080835404028352916020019161263d565b820191906000526020600020905b81548152906001019060200180831161262057829003601f168201915b505050505081526020016002820180546126569061350e565b80601f01602080910402602001604051908101604052809291908181526020018280546126829061350e565b80156126cf5780601f106126a4576101008083540402835291602001916126cf565b820191906000526020600020905b8154815290600101906020018083116126b257829003601f168201915b505050505081526020016003820160009054906101000a900473ffffffffffffffffffffffffffffffffffffffff1673ffffffffffffffffffffffffffffffffffffffff1673ffffffffffffffffffffffffffffffffffffffff1681525050815260200190600101906124ff565b50505050905090565b60008054906101000a900473ffffffffffffffffffffffffffffffffffffffff1673ffffffffffffffffffffffffffffffffffffffff163373ffffffffffffffffffffffffffffffffffffffff16146127d4576040517f08c379a00000000000000000000000000000000000000000000000000000000081526004016127cb906135b1565b60405180910390fd5b80600160006101000a81548173ffffffffffffffffffffffffffffffffffffffff021916908373ffffffffffffffffffffffffffffffffffffffff16021790555050565b60008054906101000a900473ffffffffffffffffffffffffffffffffffffffff1681565b6040518060800160405280606081526020016060815260200160608152602001606081525090565b6000604051905090565b600080fd5b600080fd5b6000819050919050565b61288b81612878565b811461289657600080fd5b50565b6000813590506128a881612882565b92915050565b6000602082840312156128c4576128c361286e565b5b60006128d284828501612899565b91505092915050565b600081519050919050565b600082825260208201905092915050565b60005b838110156129155780820151818401526020810190506128fa565b60008484015250505050565b6000601f19601f8301169050919050565b600061293d826128db565b61294781856128e6565b93506129578185602086016128f7565b61296081612921565b840191505092915050565b61297481612878565b82525050565b600073ffffffffffffffffffffffffffffffffffffffff82169050919050565b60006129a58261297a565b9050919050565b6129b58161299a565b82525050565b600060a08201905081810360008301526129d58188612932565b905081810360208301526129e98187612932565b90506129f8604083018661296b565b8181036060830152612a0a8185612932565b9050612a1960808301846129ac565b9695505050505050565b6000602082019050612a38600083018461296b565b92915050565b600080fd5b600080fd5b7f4e487b7100000000000000000000000000000000000000000000000000000000600052604160045260246000fd5b612a8082612921565b810181811067ffffffffffffffff82111715612a9f57612a9e612a48565b5b80604052505050565b6000612ab2612864565b9050612abe8282612a77565b919050565b600067ffffffffffffffff821115612ade57612add612a48565b5b612ae782612921565b9050602081019050919050565b82818337600083830152505050565b6000612b16612b1184612ac3565b612aa8565b905082815260208101848484011115612b3257612b31612a43565b5b612b3d848285612af4565b509392505050565b600082601f830112612b5a57612b59612a3e565b5b8135612b6a848260208601612b03565b91505092915050565b600080600060608486031215612b8c57612b8b61286e565b5b600084013567ffffffffffffffff811115612baa57612ba9612873565b5b612bb686828701612b45565b935050602084013567ffffffffffffffff811115612bd757612bd6612873565b5b612be386828701612b45565b9250506040612bf486828701612899565b9150509250925092565b600081519050919050565b600082825260208201905092915050565b6000819050602082019050919050565b600082825260208201905092915050565b6000612c46826128db565b612c508185612c2a565b9350612c608185602086016128f7565b612c6981612921565b840191505092915050565b612c7d81612878565b82525050565b612c8c8161299a565b82525050565b600060a0830160008301518482036000860152612caf8282612c3b565b91505060208301518482036020860152612cc98282612c3b565b9150506040830151612cde6040860182612c74565b5060608301518482036060860152612cf68282612c3b565b9150506080830151612d0b6080860182612c83565b508091505092915050565b6000612d228383612c92565b905092915050565b6000602082019050919050565b6000612d4282612bfe565b612d4c8185612c09565b935083602082028501612d5e85612c1a565b8060005b85811015612d9a5784840389528151612d7b8582612d16565b9450612d8683612d2a565b925060208a01995050600181019050612d62565b50829750879550505050505092915050565b60006020820190508181036000830152612dc68184612d37565b905092915050565b60006080820190508181036000830152612de88187612932565b90508181036020830152612dfc8186612932565b90508181036040830152612e108185612932565b9050612e1f60608301846129ac565b95945050505050565b60008060408385031215612e3f57612e3e61286e565b5b6000612e4d85828601612899565b925050602083013567ffffffffffffffff811115612e6e57612e6d612873565b5b612e7a85828601612b45565b9150509250929050565b6000602082019050612e9960008301846129ac565b92915050565b6000606082019050612eb4600083018661296b565b8181036020830152612ec68185612932565b9050612ed560408301846129ac565b949350505050565b612ee68161299a565b8114612ef157600080fd5b50565b600081359050612f0381612edd565b92915050565b600080600080600060a08688031215612f2557612f2461286e565b5b6000612f3388828901612ef4565b955050602086013567ffffffffffffffff811115612f5457612f53612873565b5b612f6088828901612b45565b945050604086013567ffffffffffffffff811115612f8157612f80612873565b5b612f8d88828901612b45565b935050606086013567ffffffffffffffff811115612fae57612fad612873565b5b612fba88828901612b45565b925050608086013567ffffffffffffffff811115612fdb57612fda612873565b5b612fe788828901612b45565b9150509295509295909350565b60006020828403121561300a5761300961286e565b5b600061301884828501612ef4565b91505092915050565b6000608082019050818103600083015261303b8187612932565b9050818103602083015261304f8186612932565b905081810360408301526130638185612932565b905081810360608301526130778184612932565b905095945050505050565b600080604083850312156130995761309861286e565b5b600083013567ffffffffffffffff8111156130b7576130b6612873565b5b6130c385828601612b45565b925050602083013567ffffffffffffffff8111156130e4576130e3612873565b5b6130f085828601612b45565b9150509250929050565b600081519050919050565b600082825260208201905092915050565b6000819050602082019050919050565b600060608301600083015161313e6000860182612c74565b50602083015184820360208601526131568282612c3b565b915050604083015161316b6040860182612c83565b508091505092915050565b60006131828383613126565b905092915050565b6000602082019050919050565b60006131a2826130fa565b6131ac8185613105565b9350836020820285016131be85613116565b8060005b858110156131fa57848403895281516131db8582613176565b94506131e68361318a565b925060208a019950506001810190506131c2565b50829750879550505050505092915050565b600060208201905081810360008301526132268184613197565b905092915050565b600081519050919050565b600082825260208201905092915050565b6000819050602082019050919050565b600060808301600083015184820360008601526132778282612c3b565b915050602083015184820360208601526132918282612c3b565b915050604083015184820360408601526132ab8282612c3b565b915050606083015184820360608601526132c58282612c3b565b9150508091505092915050565b60006132de838361325a565b905092915050565b6000602082019050919050565b60006132fe8261322e565b6133088185613239565b93508360208202850161331a8561324a565b8060005b85811015613356578484038952815161333785826132d2565b9450613342836132e6565b925060208a0199505060018101905061331e565b50829750879550505050505092915050565b6000602082019050818103600083015261338281846132f3565b905092915050565b600081519050919050565b600082825260208201905092915050565b6000819050602082019050919050565b600060808301600083015184820360008601526133d38282612c3b565b915050602083015184820360208601526133ed8282612c3b565b915050604083015184820360408601526134078282612c3b565b915050606083015161341c6060860182612c83565b508091505092915050565b600061343383836133b6565b905092915050565b6000602082019050919050565b60006134538261338a565b61345d8185613395565b93508360208202850161346f856133a6565b8060005b858110156134ab578484038952815161348c8582613427565b94506134978361343b565b925060208a01995050600181019050613473565b50829750879550505050505092915050565b600060208201905081810360008301526134d78184613448565b905092915050565b7f4e487b7100000000000000000000000000000000000000000000000000000000600052602260045260246000fd5b6000600282049050600182168061352657607f821691505b602082108103613539576135386134df565b5b50919050565b7f4f6e6c792041646d696e476f76742063616e20706572666f726d20746869732060008201527f616374696f6e2e00000000000000000000000000000000000000000000000000602082015250565b600061359b6027836128e6565b91506135a68261353f565b604082019050919050565b600060208201905081810360008301526135ca8161358e565b9050919050565b7f496e76616c696420726571756573742049442e00000000000000000000000000600082015250565b60006136076013836128e6565b9150613612826135d1565b602082019050919050565b60006020820190508181036000830152613636816135fa565b9050919050565b7f4e487b7100000000000000000000000000000000000000000000000000000000600052603260045260246000fd5b600081905092915050565b7f4e4f545041494400000000000000000000000000000000000000000000000000600082015250565b60006136ad60078361366c565b91506136b882613677565b600782019050919050565b60006136ce826136a0565b9150819050919050565b60008190508160005260206000209050919050565b600081546136fa8161350e565b613704818661366c565b9450600182166000811461371f576001811461373457613767565b60ff1983168652811515820286019350613767565b61373d856136d8565b60005b8381101561375f57815481890152600182019150602081019050613740565b838801955050505b50505092915050565b600061377c82846136ed565b915081905092915050565b7f5265717565737420616c726561647920706169642e0000000000000000000000600082015250565b60006137bd6015836128e6565b91506137c882613787565b602082019050919050565b600060208201905081810360008301526137ec816137b0565b9050919050565b7f496e73756666696369656e742062616c616e636520746f2073656e6420746f6b60008201527f656e732e00000000000000000000000000000000000000000000000000000000602082015250565b600061384f6024836128e6565b915061385a826137f3565b604082019050919050565b6000602082019050818103600083015261387e81613842565b9050919050565b7f4e487b7100000000000000000000000000000000000000000000000000000000600052601160045260246000fd5b60006138bf82612878565b91506138ca83612878565b92508282039050818111156138e2576138e1613885565b5b92915050565b60006138f382612878565b91506138fe83612878565b925082820190508082111561391657613915613885565b5b92915050565b60006020601f8301049050919050565b600082821b905092915050565b6000600883026139697fffffffffffffffffffffffffffffffffffffffffffffffffffffffffffffffff8261392c565b613973868361392c565b95508019841693508086168417925050509392505050565b6000819050919050565b60006139b06139ab6139a684612878565b61398b565b612878565b9050919050565b6000819050919050565b6139ca83613995565b6139de6139d6826139b7565b848454613939565b825550505050565b600090565b6139f36139e6565b6139fe8184846139c1565b505050565b5b81811015613a2257613a176000826139eb565b600181019050613a04565b5050565b601f821115613a6757613a38816136d8565b613a418461391c565b81016020851015613a50578190505b613a64613a5c8561391c565b830182613a03565b50505b505050565b600082821c905092915050565b6000613a8a60001984600802613a6c565b1980831691505092915050565b6000613aa38383613a79565b9150826002028217905092915050565b613abc826128db565b67ffffffffffffffff811115613ad557613ad4612a48565b5b613adf825461350e565b613aea828285613a26565b600060209050601f831160018114613b1d5760008415613b0b578287015190505b613b158582613a97565b865550613b7d565b601f198416613b2b866136d8565b60005b82811015613b5357848901518255600182019150602085019450602081019050613b2e565b86831015613b705784890151613b6c601f891682613a79565b8355505b6001600288020188555050505b505050505050565b7f5041494400000000000000000000000000000000000000000000000000000000600082015250565b6000613bbb6004836128e6565b9150613bc682613b85565b602082019050919050565b6000604082019050613be6600083018461296b565b8181036020830152613bf781613bae565b905092915050565b6000606082019050613c1460008301866129ac565b613c2160208301856129ac565b613c2e604083018461296b565b949350505050565b7f4f6e6c792041646d696e486561642063616e20706572666f726d20746869732060008201527f616374696f6e2e00000000000000000000000000000000000000000000000000602082015250565b6000613c926027836128e6565b9150613c9d82613c36565b604082019050919050565b60006020820190508181036000830152613cc181613c85565b9050919050565b7f496e73756666696369656e742062616c616e636520696e2041646d696e476f7660008201527f7420746f20616c6c6f6361746520637573746f6d2066756e64732e0000000000602082015250565b6000613d24603b836128e6565b9150613d2f82613cc8565b604082019050919050565b60006020820190508181036000830152613d5381613d17565b9050919050565b6000606082019050613d6f60008301866129ac565b8181036020830152613d818185612932565b9050613d90604083018461296b565b949350505050565b7f496e76616c6964206772696576616e636520696e6465782e0000000000000000600082015250565b6000613dce6018836128e6565b9150613dd982613d98565b602082019050919050565b60006020820190508181036000830152613dfd81613dc1565b9050919050565b7f4f6e6c79207468652063726561746f722063616e20656469742074686973207060008201527f726f6a6563742e00000000000000000000000000000000000000000000000000602082015250565b6000613e606027836128e6565b9150613e6b82613e04565b604082019050919050565b60006020820190508181036000830152613e8f81613e53565b9050919050565b6000604082019050613eab600083018561296b565b8181036020830152613ebd8184612932565b90509392505050565b7f416d6f756e74206d7573742062652067726561746572207468616e20302e0000600082015250565b6000613efc601e836128e6565b9150613f0782613ec6565b602082019050919050565b60006020820190508181036000830152613f2b81613eef565b9050919050565b6000604082019050613f4760008301856129ac565b613f54602083018461296b565b939250505056fea2646970667358221220a9f56a41f19af69195961e12a33a8430ab375aa229185c5c9953ce7f5c21193b64736f6c634300081b0033",
  "linkReferences": {},
  "deployedLinkReferences": {}
}